{"contracts/DCAContract.sol":{"DCAContract":{"abi":[{"inputs":[{"internalType":"address","name":"_router","type":"address"},{"internalType":"address","name":"_ghoToken","type":"address"},{"internalType":"address","name":"_weth","type":"address"},{"internalType":"uint256","name":"_interval","type":"uint256"}],"stateMutability":"nonpayable","type":"constructor"},{"inputs":[],"name":"ghoToken","outputs":[{"internalType":"contract IERC20","name":"","type":"address"}],"stateMutability":"view","type":"function"},{"inputs":[],"name":"interval","outputs":[{"internalType":"uint256","name":"","type":"uint256"}],"stateMutability":"view","type":"function"},{"inputs":[],"name":"lastExecutionTime","outputs":[{"internalType":"uint256","name":"","type":"uint256"}],"stateMutability":"view","type":"function"},{"inputs":[{"internalType":"uint256","name":"amountIn","type":"uint256"},{"internalType":"uint256","name":"amountOutMinimum","type":"uint256"}],"name":"swapGHOForWETH","outputs":[],"stateMutability":"nonpayable","type":"function"},{"inputs":[],"name":"swapRouter","outputs":[{"internalType":"contract ISwapRouter","name":"","type":"address"}],"stateMutability":"view","type":"function"},{"inputs":[],"name":"weth","outputs":[{"internalType":"address","name":"","type":"address"}],"stateMutability":"view","type":"function"}],"evm":{"bytecode":{"linkReferences":{},"object":"60e06040523480156200001157600080fd5b5060405162000c1038038062000c10833981810160405281019062000037919062000190565b8373ffffffffffffffffffffffffffffffffffffffff1660808173ffffffffffffffffffffffffffffffffffffffff16815250508273ffffffffffffffffffffffffffffffffffffffff1660a08173ffffffffffffffffffffffffffffffffffffffff16815250508173ffffffffffffffffffffffffffffffffffffffff1660c08173ffffffffffffffffffffffffffffffffffffffff168152505080600081905550426001819055505050505062000202565b600080fd5b600073ffffffffffffffffffffffffffffffffffffffff82169050919050565b60006200011d82620000f0565b9050919050565b6200012f8162000110565b81146200013b57600080fd5b50565b6000815190506200014f8162000124565b92915050565b6000819050919050565b6200016a8162000155565b81146200017657600080fd5b50565b6000815190506200018a816200015f565b92915050565b60008060008060808587031215620001ad57620001ac620000eb565b5b6000620001bd878288016200013e565b9450506020620001d0878288016200013e565b9350506040620001e3878288016200013e565b9250506060620001f68782880162000179565b91505092959194509250565b60805160a05160c0516109b46200025c6000396000818161011b015261038f01526000818161013f015281816101e501528181610286015261035301526000818161016f015281816102c2015261043001526109b46000f3fe608060405234801561001057600080fd5b50600436106100625760003560e01c80633fc8cef3146100675780635996db911461008557806373b379bd146100a3578063947a36fb146100c1578063c31c9c07146100df578063dbbd02bc146100fd575b600080fd5b61006f610119565b60405161007c9190610518565b60405180910390f35b61008d61013d565b60405161009a9190610592565b60405180910390f35b6100ab610161565b6040516100b891906105c6565b60405180910390f35b6100c9610167565b6040516100d691906105c6565b60405180910390f35b6100e761016d565b6040516100f49190610602565b60405180910390f35b6101176004803603810190610112919061064e565b610191565b005b7f000000000000000000000000000000000000000000000000000000000000000081565b7f000000000000000000000000000000000000000000000000000000000000000081565b60015481565b60005481565b7f000000000000000000000000000000000000000000000000000000000000000081565b6000546001546101a191906106bd565b4210156101e3576040517f08c379a00000000000000000000000000000000000000000000000000000000081526004016101da9061074e565b60405180910390fd5b7f000000000000000000000000000000000000000000000000000000000000000073ffffffffffffffffffffffffffffffffffffffff166323b872dd3330856040518463ffffffff1660e01b81526004016102409392919061076e565b6020604051808303816000875af115801561025f573d6000803e3d6000fd5b505050506040513d601f19601f8201168201806040525081019061028391906107dd565b507f000000000000000000000000000000000000000000000000000000000000000073ffffffffffffffffffffffffffffffffffffffff1663095ea7b37f0000000000000000000000000000000000000000000000000000000000000000846040518363ffffffff1660e01b81526004016102ff92919061080a565b6020604051808303816000875af115801561031e573d6000803e3d6000fd5b505050506040513d601f19601f8201168201806040525081019061034291906107dd565b5060006040518061010001604052807f000000000000000000000000000000000000000000000000000000000000000073ffffffffffffffffffffffffffffffffffffffff1681526020017f000000000000000000000000000000000000000000000000000000000000000073ffffffffffffffffffffffffffffffffffffffff168152602001610bb862ffffff1681526020013373ffffffffffffffffffffffffffffffffffffffff1681526020016103844261040091906106bd565b8152602001848152602001838152602001600073ffffffffffffffffffffffffffffffffffffffff1681525090507f000000000000000000000000000000000000000000000000000000000000000073ffffffffffffffffffffffffffffffffffffffff1663414bf389826040518263ffffffff1660e01b81526004016104879190610920565b6020604051808303816000875af11580156104a6573d6000803e3d6000fd5b505050506040513d601f19601f820116820180604052508101906104ca9190610951565b5050426001819055505050565b600073ffffffffffffffffffffffffffffffffffffffff82169050919050565b6000610502826104d7565b9050919050565b610512816104f7565b82525050565b600060208201905061052d6000830184610509565b92915050565b6000819050919050565b600061055861055361054e846104d7565b610533565b6104d7565b9050919050565b600061056a8261053d565b9050919050565b600061057c8261055f565b9050919050565b61058c81610571565b82525050565b60006020820190506105a76000830184610583565b92915050565b6000819050919050565b6105c0816105ad565b82525050565b60006020820190506105db60008301846105b7565b92915050565b60006105ec8261055f565b9050919050565b6105fc816105e1565b82525050565b600060208201905061061760008301846105f3565b92915050565b600080fd5b61062b816105ad565b811461063657600080fd5b50565b60008135905061064881610622565b92915050565b600080604083850312156106655761066461061d565b5b600061067385828601610639565b925050602061068485828601610639565b9150509250929050565b7f4e487b7100000000000000000000000000000000000000000000000000000000600052601160045260246000fd5b60006106c8826105ad565b91506106d3836105ad565b92508282019050808211156106eb576106ea61068e565b5b92915050565b600082825260208201905092915050565b7f496e74657276616c206e6f742070617373656400000000000000000000000000600082015250565b60006107386013836106f1565b915061074382610702565b602082019050919050565b600060208201905081810360008301526107678161072b565b9050919050565b60006060820190506107836000830186610509565b6107906020830185610509565b61079d60408301846105b7565b949350505050565b60008115159050919050565b6107ba816107a5565b81146107c557600080fd5b50565b6000815190506107d7816107b1565b92915050565b6000602082840312156107f3576107f261061d565b5b6000610801848285016107c8565b91505092915050565b600060408201905061081f6000830185610509565b61082c60208301846105b7565b9392505050565b61083c816104f7565b82525050565b600062ffffff82169050919050565b61085a81610842565b82525050565b610869816105ad565b82525050565b610878816104d7565b82525050565b610100820160008201516108956000850182610833565b5060208201516108a86020850182610833565b5060408201516108bb6040850182610851565b5060608201516108ce6060850182610833565b5060808201516108e16080850182610860565b5060a08201516108f460a0850182610860565b5060c082015161090760c0850182610860565b5060e082015161091a60e085018261086f565b50505050565b600061010082019050610936600083018461087e565b92915050565b60008151905061094b81610622565b92915050565b6000602082840312156109675761096661061d565b5b60006109758482850161093c565b9150509291505056fea2646970667358221220fea098ec8f3ef4c1f6e5faaa801ee46e2e8afbfbc726c322d399c65920db287c64736f6c63430008180033","opcodes":"PUSH1 0xE0 PUSH1 0x40 MSTORE CALLVALUE DUP1 ISZERO PUSH3 0x11 JUMPI PUSH1 0x0 DUP1 REVERT JUMPDEST POP PUSH1 0x40 MLOAD PUSH3 0xC10 CODESIZE SUB DUP1 PUSH3 0xC10 DUP4 CODECOPY DUP2 DUP2 ADD PUSH1 0x40 MSTORE DUP2 ADD SWAP1 PUSH3 0x37 SWAP2 SWAP1 PUSH3 0x190 JUMP JUMPDEST DUP4 PUSH20 0xFFFFFFFFFFFFFFFFFFFFFFFFFFFFFFFFFFFFFFFF AND PUSH1 0x80 DUP2 PUSH20 0xFFFFFFFFFFFFFFFFFFFFFFFFFFFFFFFFFFFFFFFF AND DUP2 MSTORE POP POP DUP3 PUSH20 0xFFFFFFFFFFFFFFFFFFFFFFFFFFFFFFFFFFFFFFFF AND PUSH1 0xA0 DUP2 PUSH20 0xFFFFFFFFFFFFFFFFFFFFFFFFFFFFFFFFFFFFFFFF AND DUP2 MSTORE POP POP DUP2 PUSH20 0xFFFFFFFFFFFFFFFFFFFFFFFFFFFFFFFFFFFFFFFF AND PUSH1 0xC0 DUP2 PUSH20 0xFFFFFFFFFFFFFFFFFFFFFFFFFFFFFFFFFFFFFFFF AND DUP2 MSTORE POP POP DUP1 PUSH1 0x0 DUP2 SWAP1 SSTORE POP TIMESTAMP PUSH1 0x1 DUP2 SWAP1 SSTORE POP POP POP POP POP PUSH3 0x202 JUMP JUMPDEST PUSH1 0x0 DUP1 REVERT JUMPDEST PUSH1 0x0 PUSH20 0xFFFFFFFFFFFFFFFFFFFFFFFFFFFFFFFFFFFFFFFF DUP3 AND SWAP1 POP SWAP2 SWAP1 POP JUMP JUMPDEST PUSH1 0x0 PUSH3 0x11D DUP3 PUSH3 0xF0 JUMP JUMPDEST SWAP1 POP SWAP2 SWAP1 POP JUMP JUMPDEST PUSH3 0x12F DUP2 PUSH3 0x110 JUMP JUMPDEST DUP2 EQ PUSH3 0x13B JUMPI PUSH1 0x0 DUP1 REVERT JUMPDEST POP JUMP JUMPDEST PUSH1 0x0 DUP2 MLOAD SWAP1 POP PUSH3 0x14F DUP2 PUSH3 0x124 JUMP JUMPDEST SWAP3 SWAP2 POP POP JUMP JUMPDEST PUSH1 0x0 DUP2 SWAP1 POP SWAP2 SWAP1 POP JUMP JUMPDEST PUSH3 0x16A DUP2 PUSH3 0x155 JUMP JUMPDEST DUP2 EQ PUSH3 0x176 JUMPI PUSH1 0x0 DUP1 REVERT JUMPDEST POP JUMP JUMPDEST PUSH1 0x0 DUP2 MLOAD SWAP1 POP PUSH3 0x18A DUP2 PUSH3 0x15F JUMP JUMPDEST SWAP3 SWAP2 POP POP JUMP JUMPDEST PUSH1 0x0 DUP1 PUSH1 0x0 DUP1 PUSH1 0x80 DUP6 DUP8 SUB SLT ISZERO PUSH3 0x1AD JUMPI PUSH3 0x1AC PUSH3 0xEB JUMP JUMPDEST JUMPDEST PUSH1 0x0 PUSH3 0x1BD DUP8 DUP3 DUP9 ADD PUSH3 0x13E JUMP JUMPDEST SWAP5 POP POP PUSH1 0x20 PUSH3 0x1D0 DUP8 DUP3 DUP9 ADD PUSH3 0x13E JUMP JUMPDEST SWAP4 POP POP PUSH1 0x40 PUSH3 0x1E3 DUP8 DUP3 DUP9 ADD PUSH3 0x13E JUMP JUMPDEST SWAP3 POP POP PUSH1 0x60 PUSH3 0x1F6 DUP8 DUP3 DUP9 ADD PUSH3 0x179 JUMP JUMPDEST SWAP2 POP POP SWAP3 SWAP6 SWAP2 SWAP5 POP SWAP3 POP JUMP JUMPDEST PUSH1 0x80 MLOAD PUSH1 0xA0 MLOAD PUSH1 0xC0 MLOAD PUSH2 0x9B4 PUSH3 0x25C PUSH1 0x0 CODECOPY PUSH1 0x0 DUP2 DUP2 PUSH2 0x11B ADD MSTORE PUSH2 0x38F ADD MSTORE PUSH1 0x0 DUP2 DUP2 PUSH2 0x13F ADD MSTORE DUP2 DUP2 PUSH2 0x1E5 ADD MSTORE DUP2 DUP2 PUSH2 0x286 ADD MSTORE PUSH2 0x353 ADD MSTORE PUSH1 0x0 DUP2 DUP2 PUSH2 0x16F ADD MSTORE DUP2 DUP2 PUSH2 0x2C2 ADD MSTORE PUSH2 0x430 ADD MSTORE PUSH2 0x9B4 PUSH1 0x0 RETURN INVALID PUSH1 0x80 PUSH1 0x40 MSTORE CALLVALUE DUP1 ISZERO PUSH2 0x10 JUMPI PUSH1 0x0 DUP1 REVERT JUMPDEST POP PUSH1 0x4 CALLDATASIZE LT PUSH2 0x62 JUMPI PUSH1 0x0 CALLDATALOAD PUSH1 0xE0 SHR DUP1 PUSH4 0x3FC8CEF3 EQ PUSH2 0x67 JUMPI DUP1 PUSH4 0x5996DB91 EQ PUSH2 0x85 JUMPI DUP1 PUSH4 0x73B379BD EQ PUSH2 0xA3 JUMPI DUP1 PUSH4 0x947A36FB EQ PUSH2 0xC1 JUMPI DUP1 PUSH4 0xC31C9C07 EQ PUSH2 0xDF JUMPI DUP1 PUSH4 0xDBBD02BC EQ PUSH2 0xFD JUMPI JUMPDEST PUSH1 0x0 DUP1 REVERT JUMPDEST PUSH2 0x6F PUSH2 0x119 JUMP JUMPDEST PUSH1 0x40 MLOAD PUSH2 0x7C SWAP2 SWAP1 PUSH2 0x518 JUMP JUMPDEST PUSH1 0x40 MLOAD DUP1 SWAP2 SUB SWAP1 RETURN JUMPDEST PUSH2 0x8D PUSH2 0x13D JUMP JUMPDEST PUSH1 0x40 MLOAD PUSH2 0x9A SWAP2 SWAP1 PUSH2 0x592 JUMP JUMPDEST PUSH1 0x40 MLOAD DUP1 SWAP2 SUB SWAP1 RETURN JUMPDEST PUSH2 0xAB PUSH2 0x161 JUMP JUMPDEST PUSH1 0x40 MLOAD PUSH2 0xB8 SWAP2 SWAP1 PUSH2 0x5C6 JUMP JUMPDEST PUSH1 0x40 MLOAD DUP1 SWAP2 SUB SWAP1 RETURN JUMPDEST PUSH2 0xC9 PUSH2 0x167 JUMP JUMPDEST PUSH1 0x40 MLOAD PUSH2 0xD6 SWAP2 SWAP1 PUSH2 0x5C6 JUMP JUMPDEST PUSH1 0x40 MLOAD DUP1 SWAP2 SUB SWAP1 RETURN JUMPDEST PUSH2 0xE7 PUSH2 0x16D JUMP JUMPDEST PUSH1 0x40 MLOAD PUSH2 0xF4 SWAP2 SWAP1 PUSH2 0x602 JUMP JUMPDEST PUSH1 0x40 MLOAD DUP1 SWAP2 SUB SWAP1 RETURN JUMPDEST PUSH2 0x117 PUSH1 0x4 DUP1 CALLDATASIZE SUB DUP2 ADD SWAP1 PUSH2 0x112 SWAP2 SWAP1 PUSH2 0x64E JUMP JUMPDEST PUSH2 0x191 JUMP JUMPDEST STOP JUMPDEST PUSH32 0x0 DUP2 JUMP JUMPDEST PUSH32 0x0 DUP2 JUMP JUMPDEST PUSH1 0x1 SLOAD DUP2 JUMP JUMPDEST PUSH1 0x0 SLOAD DUP2 JUMP JUMPDEST PUSH32 0x0 DUP2 JUMP JUMPDEST PUSH1 0x0 SLOAD PUSH1 0x1 SLOAD PUSH2 0x1A1 SWAP2 SWAP1 PUSH2 0x6BD JUMP JUMPDEST TIMESTAMP LT ISZERO PUSH2 0x1E3 JUMPI PUSH1 0x40 MLOAD PUSH32 0x8C379A000000000000000000000000000000000000000000000000000000000 DUP2 MSTORE PUSH1 0x4 ADD PUSH2 0x1DA SWAP1 PUSH2 0x74E JUMP JUMPDEST PUSH1 0x40 MLOAD DUP1 SWAP2 SUB SWAP1 REVERT JUMPDEST PUSH32 0x0 PUSH20 0xFFFFFFFFFFFFFFFFFFFFFFFFFFFFFFFFFFFFFFFF AND PUSH4 0x23B872DD CALLER ADDRESS DUP6 PUSH1 0x40 MLOAD DUP5 PUSH4 0xFFFFFFFF AND PUSH1 0xE0 SHL DUP2 MSTORE PUSH1 0x4 ADD PUSH2 0x240 SWAP4 SWAP3 SWAP2 SWAP1 PUSH2 0x76E JUMP JUMPDEST PUSH1 0x20 PUSH1 0x40 MLOAD DUP1 DUP4 SUB DUP2 PUSH1 0x0 DUP8 GAS CALL ISZERO DUP1 ISZERO PUSH2 0x25F JUMPI RETURNDATASIZE PUSH1 0x0 DUP1 RETURNDATACOPY RETURNDATASIZE PUSH1 0x0 REVERT JUMPDEST POP POP POP POP PUSH1 0x40 MLOAD RETURNDATASIZE PUSH1 0x1F NOT PUSH1 0x1F DUP3 ADD AND DUP3 ADD DUP1 PUSH1 0x40 MSTORE POP DUP2 ADD SWAP1 PUSH2 0x283 SWAP2 SWAP1 PUSH2 0x7DD JUMP JUMPDEST POP PUSH32 0x0 PUSH20 0xFFFFFFFFFFFFFFFFFFFFFFFFFFFFFFFFFFFFFFFF AND PUSH4 0x95EA7B3 PUSH32 0x0 DUP5 PUSH1 0x40 MLOAD DUP4 PUSH4 0xFFFFFFFF AND PUSH1 0xE0 SHL DUP2 MSTORE PUSH1 0x4 ADD PUSH2 0x2FF SWAP3 SWAP2 SWAP1 PUSH2 0x80A JUMP JUMPDEST PUSH1 0x20 PUSH1 0x40 MLOAD DUP1 DUP4 SUB DUP2 PUSH1 0x0 DUP8 GAS CALL ISZERO DUP1 ISZERO PUSH2 0x31E JUMPI RETURNDATASIZE PUSH1 0x0 DUP1 RETURNDATACOPY RETURNDATASIZE PUSH1 0x0 REVERT JUMPDEST POP POP POP POP PUSH1 0x40 MLOAD RETURNDATASIZE PUSH1 0x1F NOT PUSH1 0x1F DUP3 ADD AND DUP3 ADD DUP1 PUSH1 0x40 MSTORE POP DUP2 ADD SWAP1 PUSH2 0x342 SWAP2 SWAP1 PUSH2 0x7DD JUMP JUMPDEST POP PUSH1 0x0 PUSH1 0x40 MLOAD DUP1 PUSH2 0x100 ADD PUSH1 0x40 MSTORE DUP1 PUSH32 0x0 PUSH20 0xFFFFFFFFFFFFFFFFFFFFFFFFFFFFFFFFFFFFFFFF AND DUP2 MSTORE PUSH1 0x20 ADD PUSH32 0x0 PUSH20 0xFFFFFFFFFFFFFFFFFFFFFFFFFFFFFFFFFFFFFFFF AND DUP2 MSTORE PUSH1 0x20 ADD PUSH2 0xBB8 PUSH3 0xFFFFFF AND DUP2 MSTORE PUSH1 0x20 ADD CALLER PUSH20 0xFFFFFFFFFFFFFFFFFFFFFFFFFFFFFFFFFFFFFFFF AND DUP2 MSTORE PUSH1 0x20 ADD PUSH2 0x384 TIMESTAMP PUSH2 0x400 SWAP2 SWAP1 PUSH2 0x6BD JUMP JUMPDEST DUP2 MSTORE PUSH1 0x20 ADD DUP5 DUP2 MSTORE PUSH1 0x20 ADD DUP4 DUP2 MSTORE PUSH1 0x20 ADD PUSH1 0x0 PUSH20 0xFFFFFFFFFFFFFFFFFFFFFFFFFFFFFFFFFFFFFFFF AND DUP2 MSTORE POP SWAP1 POP PUSH32 0x0 PUSH20 0xFFFFFFFFFFFFFFFFFFFFFFFFFFFFFFFFFFFFFFFF AND PUSH4 0x414BF389 DUP3 PUSH1 0x40 MLOAD DUP3 PUSH4 0xFFFFFFFF AND PUSH1 0xE0 SHL DUP2 MSTORE PUSH1 0x4 ADD PUSH2 0x487 SWAP2 SWAP1 PUSH2 0x920 JUMP JUMPDEST PUSH1 0x20 PUSH1 0x40 MLOAD DUP1 DUP4 SUB DUP2 PUSH1 0x0 DUP8 GAS CALL ISZERO DUP1 ISZERO PUSH2 0x4A6 JUMPI RETURNDATASIZE PUSH1 0x0 DUP1 RETURNDATACOPY RETURNDATASIZE PUSH1 0x0 REVERT JUMPDEST POP POP POP POP PUSH1 0x40 MLOAD RETURNDATASIZE PUSH1 0x1F NOT PUSH1 0x1F DUP3 ADD AND DUP3 ADD DUP1 PUSH1 0x40 MSTORE POP DUP2 ADD SWAP1 PUSH2 0x4CA SWAP2 SWAP1 PUSH2 0x951 JUMP JUMPDEST POP POP TIMESTAMP PUSH1 0x1 DUP2 SWAP1 SSTORE POP POP POP JUMP JUMPDEST PUSH1 0x0 PUSH20 0xFFFFFFFFFFFFFFFFFFFFFFFFFFFFFFFFFFFFFFFF DUP3 AND SWAP1 POP SWAP2 SWAP1 POP JUMP JUMPDEST PUSH1 0x0 PUSH2 0x502 DUP3 PUSH2 0x4D7 JUMP JUMPDEST SWAP1 POP SWAP2 SWAP1 POP JUMP JUMPDEST PUSH2 0x512 DUP2 PUSH2 0x4F7 JUMP JUMPDEST DUP3 MSTORE POP POP JUMP JUMPDEST PUSH1 0x0 PUSH1 0x20 DUP3 ADD SWAP1 POP PUSH2 0x52D PUSH1 0x0 DUP4 ADD DUP5 PUSH2 0x509 JUMP JUMPDEST SWAP3 SWAP2 POP POP JUMP JUMPDEST PUSH1 0x0 DUP2 SWAP1 POP SWAP2 SWAP1 POP JUMP JUMPDEST PUSH1 0x0 PUSH2 0x558 PUSH2 0x553 PUSH2 0x54E DUP5 PUSH2 0x4D7 JUMP JUMPDEST PUSH2 0x533 JUMP JUMPDEST PUSH2 0x4D7 JUMP JUMPDEST SWAP1 POP SWAP2 SWAP1 POP JUMP JUMPDEST PUSH1 0x0 PUSH2 0x56A DUP3 PUSH2 0x53D JUMP JUMPDEST SWAP1 POP SWAP2 SWAP1 POP JUMP JUMPDEST PUSH1 0x0 PUSH2 0x57C DUP3 PUSH2 0x55F JUMP JUMPDEST SWAP1 POP SWAP2 SWAP1 POP JUMP JUMPDEST PUSH2 0x58C DUP2 PUSH2 0x571 JUMP JUMPDEST DUP3 MSTORE POP POP JUMP JUMPDEST PUSH1 0x0 PUSH1 0x20 DUP3 ADD SWAP1 POP PUSH2 0x5A7 PUSH1 0x0 DUP4 ADD DUP5 PUSH2 0x583 JUMP JUMPDEST SWAP3 SWAP2 POP POP JUMP JUMPDEST PUSH1 0x0 DUP2 SWAP1 POP SWAP2 SWAP1 POP JUMP JUMPDEST PUSH2 0x5C0 DUP2 PUSH2 0x5AD JUMP JUMPDEST DUP3 MSTORE POP POP JUMP JUMPDEST PUSH1 0x0 PUSH1 0x20 DUP3 ADD SWAP1 POP PUSH2 0x5DB PUSH1 0x0 DUP4 ADD DUP5 PUSH2 0x5B7 JUMP JUMPDEST SWAP3 SWAP2 POP POP JUMP JUMPDEST PUSH1 0x0 PUSH2 0x5EC DUP3 PUSH2 0x55F JUMP JUMPDEST SWAP1 POP SWAP2 SWAP1 POP JUMP JUMPDEST PUSH2 0x5FC DUP2 PUSH2 0x5E1 JUMP JUMPDEST DUP3 MSTORE POP POP JUMP JUMPDEST PUSH1 0x0 PUSH1 0x20 DUP3 ADD SWAP1 POP PUSH2 0x617 PUSH1 0x0 DUP4 ADD DUP5 PUSH2 0x5F3 JUMP JUMPDEST SWAP3 SWAP2 POP POP JUMP JUMPDEST PUSH1 0x0 DUP1 REVERT JUMPDEST PUSH2 0x62B DUP2 PUSH2 0x5AD JUMP JUMPDEST DUP2 EQ PUSH2 0x636 JUMPI PUSH1 0x0 DUP1 REVERT JUMPDEST POP JUMP JUMPDEST PUSH1 0x0 DUP2 CALLDATALOAD SWAP1 POP PUSH2 0x648 DUP2 PUSH2 0x622 JUMP JUMPDEST SWAP3 SWAP2 POP POP JUMP JUMPDEST PUSH1 0x0 DUP1 PUSH1 0x40 DUP4 DUP6 SUB SLT ISZERO PUSH2 0x665 JUMPI PUSH2 0x664 PUSH2 0x61D JUMP JUMPDEST JUMPDEST PUSH1 0x0 PUSH2 0x673 DUP6 DUP3 DUP7 ADD PUSH2 0x639 JUMP JUMPDEST SWAP3 POP POP PUSH1 0x20 PUSH2 0x684 DUP6 DUP3 DUP7 ADD PUSH2 0x639 JUMP JUMPDEST SWAP2 POP POP SWAP3 POP SWAP3 SWAP1 POP JUMP JUMPDEST PUSH32 0x4E487B7100000000000000000000000000000000000000000000000000000000 PUSH1 0x0 MSTORE PUSH1 0x11 PUSH1 0x4 MSTORE PUSH1 0x24 PUSH1 0x0 REVERT JUMPDEST PUSH1 0x0 PUSH2 0x6C8 DUP3 PUSH2 0x5AD JUMP JUMPDEST SWAP2 POP PUSH2 0x6D3 DUP4 PUSH2 0x5AD JUMP JUMPDEST SWAP3 POP DUP3 DUP3 ADD SWAP1 POP DUP1 DUP3 GT ISZERO PUSH2 0x6EB JUMPI PUSH2 0x6EA PUSH2 0x68E JUMP JUMPDEST JUMPDEST SWAP3 SWAP2 POP POP JUMP JUMPDEST PUSH1 0x0 DUP3 DUP3 MSTORE PUSH1 0x20 DUP3 ADD SWAP1 POP SWAP3 SWAP2 POP POP JUMP JUMPDEST PUSH32 0x496E74657276616C206E6F742070617373656400000000000000000000000000 PUSH1 0x0 DUP3 ADD MSTORE POP JUMP JUMPDEST PUSH1 0x0 PUSH2 0x738 PUSH1 0x13 DUP4 PUSH2 0x6F1 JUMP JUMPDEST SWAP2 POP PUSH2 0x743 DUP3 PUSH2 0x702 JUMP JUMPDEST PUSH1 0x20 DUP3 ADD SWAP1 POP SWAP2 SWAP1 POP JUMP JUMPDEST PUSH1 0x0 PUSH1 0x20 DUP3 ADD SWAP1 POP DUP2 DUP2 SUB PUSH1 0x0 DUP4 ADD MSTORE PUSH2 0x767 DUP2 PUSH2 0x72B JUMP JUMPDEST SWAP1 POP SWAP2 SWAP1 POP JUMP JUMPDEST PUSH1 0x0 PUSH1 0x60 DUP3 ADD SWAP1 POP PUSH2 0x783 PUSH1 0x0 DUP4 ADD DUP7 PUSH2 0x509 JUMP JUMPDEST PUSH2 0x790 PUSH1 0x20 DUP4 ADD DUP6 PUSH2 0x509 JUMP JUMPDEST PUSH2 0x79D PUSH1 0x40 DUP4 ADD DUP5 PUSH2 0x5B7 JUMP JUMPDEST SWAP5 SWAP4 POP POP POP POP JUMP JUMPDEST PUSH1 0x0 DUP2 ISZERO ISZERO SWAP1 POP SWAP2 SWAP1 POP JUMP JUMPDEST PUSH2 0x7BA DUP2 PUSH2 0x7A5 JUMP JUMPDEST DUP2 EQ PUSH2 0x7C5 JUMPI PUSH1 0x0 DUP1 REVERT JUMPDEST POP JUMP JUMPDEST PUSH1 0x0 DUP2 MLOAD SWAP1 POP PUSH2 0x7D7 DUP2 PUSH2 0x7B1 JUMP JUMPDEST SWAP3 SWAP2 POP POP JUMP JUMPDEST PUSH1 0x0 PUSH1 0x20 DUP3 DUP5 SUB SLT ISZERO PUSH2 0x7F3 JUMPI PUSH2 0x7F2 PUSH2 0x61D JUMP JUMPDEST JUMPDEST PUSH1 0x0 PUSH2 0x801 DUP5 DUP3 DUP6 ADD PUSH2 0x7C8 JUMP JUMPDEST SWAP2 POP POP SWAP3 SWAP2 POP POP JUMP JUMPDEST PUSH1 0x0 PUSH1 0x40 DUP3 ADD SWAP1 POP PUSH2 0x81F PUSH1 0x0 DUP4 ADD DUP6 PUSH2 0x509 JUMP JUMPDEST PUSH2 0x82C PUSH1 0x20 DUP4 ADD DUP5 PUSH2 0x5B7 JUMP JUMPDEST SWAP4 SWAP3 POP POP POP JUMP JUMPDEST PUSH2 0x83C DUP2 PUSH2 0x4F7 JUMP JUMPDEST DUP3 MSTORE POP POP JUMP JUMPDEST PUSH1 0x0 PUSH3 0xFFFFFF DUP3 AND SWAP1 POP SWAP2 SWAP1 POP JUMP JUMPDEST PUSH2 0x85A DUP2 PUSH2 0x842 JUMP JUMPDEST DUP3 MSTORE POP POP JUMP JUMPDEST PUSH2 0x869 DUP2 PUSH2 0x5AD JUMP JUMPDEST DUP3 MSTORE POP POP JUMP JUMPDEST PUSH2 0x878 DUP2 PUSH2 0x4D7 JUMP JUMPDEST DUP3 MSTORE POP POP JUMP JUMPDEST PUSH2 0x100 DUP3 ADD PUSH1 0x0 DUP3 ADD MLOAD PUSH2 0x895 PUSH1 0x0 DUP6 ADD DUP3 PUSH2 0x833 JUMP JUMPDEST POP PUSH1 0x20 DUP3 ADD MLOAD PUSH2 0x8A8 PUSH1 0x20 DUP6 ADD DUP3 PUSH2 0x833 JUMP JUMPDEST POP PUSH1 0x40 DUP3 ADD MLOAD PUSH2 0x8BB PUSH1 0x40 DUP6 ADD DUP3 PUSH2 0x851 JUMP JUMPDEST POP PUSH1 0x60 DUP3 ADD MLOAD PUSH2 0x8CE PUSH1 0x60 DUP6 ADD DUP3 PUSH2 0x833 JUMP JUMPDEST POP PUSH1 0x80 DUP3 ADD MLOAD PUSH2 0x8E1 PUSH1 0x80 DUP6 ADD DUP3 PUSH2 0x860 JUMP JUMPDEST POP PUSH1 0xA0 DUP3 ADD MLOAD PUSH2 0x8F4 PUSH1 0xA0 DUP6 ADD DUP3 PUSH2 0x860 JUMP JUMPDEST POP PUSH1 0xC0 DUP3 ADD MLOAD PUSH2 0x907 PUSH1 0xC0 DUP6 ADD DUP3 PUSH2 0x860 JUMP JUMPDEST POP PUSH1 0xE0 DUP3 ADD MLOAD PUSH2 0x91A PUSH1 0xE0 DUP6 ADD DUP3 PUSH2 0x86F JUMP JUMPDEST POP POP POP POP JUMP JUMPDEST PUSH1 0x0 PUSH2 0x100 DUP3 ADD SWAP1 POP PUSH2 0x936 PUSH1 0x0 DUP4 ADD DUP5 PUSH2 0x87E JUMP JUMPDEST SWAP3 SWAP2 POP POP JUMP JUMPDEST PUSH1 0x0 DUP2 MLOAD SWAP1 POP PUSH2 0x94B DUP2 PUSH2 0x622 JUMP JUMPDEST SWAP3 SWAP2 POP POP JUMP JUMPDEST PUSH1 0x0 PUSH1 0x20 DUP3 DUP5 SUB SLT ISZERO PUSH2 0x967 JUMPI PUSH2 0x966 PUSH2 0x61D JUMP JUMPDEST JUMPDEST PUSH1 0x0 PUSH2 0x975 DUP5 DUP3 DUP6 ADD PUSH2 0x93C JUMP JUMPDEST SWAP2 POP POP SWAP3 SWAP2 POP POP JUMP INVALID LOG2 PUSH5 0x6970667358 0x22 SLT KECCAK256 INVALID LOG0 SWAP9 0xEC DUP16 RETURNDATACOPY DELEGATECALL 0xC1 0xF6 0xE5 STATICCALL 0xAA DUP1 0x1E 0xE4 PUSH15 0x2E8AFBFBC726C322D399C65920DB28 PUSH29 0x64736F6C63430008180033000000000000000000000000000000000000 "},"methodIdentifiers":{"ghoToken()":"5996db91","interval()":"947a36fb","lastExecutionTime()":"73b379bd","swapGHOForWETH(uint256,uint256)":"dbbd02bc","swapRouter()":"c31c9c07","weth()":"3fc8cef3"}}}}}