{
  "_format": "hh-sol-artifact-1",
  "contractName": "DCAContract",
  "sourceName": "contracts/DCAContract.sol",
  "abi": [
    {
      "inputs": [
        {
          "internalType": "address",
          "name": "_router",
          "type": "address"
        },
        {
          "internalType": "address",
          "name": "_ghoToken",
          "type": "address"
        },
        {
          "internalType": "address",
          "name": "_weth",
          "type": "address"
        },
        {
          "internalType": "uint256",
          "name": "_interval",
          "type": "uint256"
        }
      ],
      "stateMutability": "nonpayable",
      "type": "constructor"
    },
    {
      "inputs": [],
      "name": "ghoToken",
      "outputs": [
        {
          "internalType": "contract IERC20",
          "name": "",
          "type": "address"
        }
      ],
      "stateMutability": "view",
      "type": "function"
    },
    {
      "inputs": [],
      "name": "interval",
      "outputs": [
        {
          "internalType": "uint256",
          "name": "",
          "type": "uint256"
        }
      ],
      "stateMutability": "view",
      "type": "function"
    },
    {
      "inputs": [],
      "name": "lastExecutionTime",
      "outputs": [
        {
          "internalType": "uint256",
          "name": "",
          "type": "uint256"
        }
      ],
      "stateMutability": "view",
      "type": "function"
    },
    {
      "inputs": [
        {
          "internalType": "uint256",
          "name": "amountIn",
          "type": "uint256"
        },
        {
          "internalType": "uint256",
          "name": "amountOutMinimum",
          "type": "uint256"
        }
      ],
      "name": "swapGHOForWETH",
      "outputs": [],
      "stateMutability": "nonpayable",
      "type": "function"
    },
    {
      "inputs": [],
      "name": "swapRouter",
      "outputs": [
        {
          "internalType": "contract ISwapRouter",
          "name": "",
          "type": "address"
        }
      ],
      "stateMutability": "view",
      "type": "function"
    },
    {
      "inputs": [],
      "name": "weth",
      "outputs": [
        {
          "internalType": "address",
          "name": "",
          "type": "address"
        }
      ],
      "stateMutability": "view",
      "type": "function"
    }
  ],
  "bytecode": "0x60e06040523480156200001157600080fd5b5060405162000c1038038062000c10833981810160405281019062000037919062000190565b8373ffffffffffffffffffffffffffffffffffffffff1660808173ffffffffffffffffffffffffffffffffffffffff16815250508273ffffffffffffffffffffffffffffffffffffffff1660a08173ffffffffffffffffffffffffffffffffffffffff16815250508173ffffffffffffffffffffffffffffffffffffffff1660c08173ffffffffffffffffffffffffffffffffffffffff168152505080600081905550426001819055505050505062000202565b600080fd5b600073ffffffffffffffffffffffffffffffffffffffff82169050919050565b60006200011d82620000f0565b9050919050565b6200012f8162000110565b81146200013b57600080fd5b50565b6000815190506200014f8162000124565b92915050565b6000819050919050565b6200016a8162000155565b81146200017657600080fd5b50565b6000815190506200018a816200015f565b92915050565b60008060008060808587031215620001ad57620001ac620000eb565b5b6000620001bd878288016200013e565b9450506020620001d0878288016200013e565b9350506040620001e3878288016200013e565b9250506060620001f68782880162000179565b91505092959194509250565b60805160a05160c0516109b46200025c6000396000818161011b015261038f01526000818161013f015281816101e501528181610286015261035301526000818161016f015281816102c2015261043001526109b46000f3fe608060405234801561001057600080fd5b50600436106100625760003560e01c80633fc8cef3146100675780635996db911461008557806373b379bd146100a3578063947a36fb146100c1578063c31c9c07146100df578063dbbd02bc146100fd575b600080fd5b61006f610119565b60405161007c9190610518565b60405180910390f35b61008d61013d565b60405161009a9190610592565b60405180910390f35b6100ab610161565b6040516100b891906105c6565b60405180910390f35b6100c9610167565b6040516100d691906105c6565b60405180910390f35b6100e761016d565b6040516100f49190610602565b60405180910390f35b6101176004803603810190610112919061064e565b610191565b005b7f000000000000000000000000000000000000000000000000000000000000000081565b7f000000000000000000000000000000000000000000000000000000000000000081565b60015481565b60005481565b7f000000000000000000000000000000000000000000000000000000000000000081565b6000546001546101a191906106bd565b4210156101e3576040517f08c379a00000000000000000000000000000000000000000000000000000000081526004016101da9061074e565b60405180910390fd5b7f000000000000000000000000000000000000000000000000000000000000000073ffffffffffffffffffffffffffffffffffffffff166323b872dd3330856040518463ffffffff1660e01b81526004016102409392919061076e565b6020604051808303816000875af115801561025f573d6000803e3d6000fd5b505050506040513d601f19601f8201168201806040525081019061028391906107dd565b507f000000000000000000000000000000000000000000000000000000000000000073ffffffffffffffffffffffffffffffffffffffff1663095ea7b37f0000000000000000000000000000000000000000000000000000000000000000846040518363ffffffff1660e01b81526004016102ff92919061080a565b6020604051808303816000875af115801561031e573d6000803e3d6000fd5b505050506040513d601f19601f8201168201806040525081019061034291906107dd565b5060006040518061010001604052807f000000000000000000000000000000000000000000000000000000000000000073ffffffffffffffffffffffffffffffffffffffff1681526020017f000000000000000000000000000000000000000000000000000000000000000073ffffffffffffffffffffffffffffffffffffffff168152602001610bb862ffffff1681526020013373ffffffffffffffffffffffffffffffffffffffff1681526020016103844261040091906106bd565b8152602001848152602001838152602001600073ffffffffffffffffffffffffffffffffffffffff1681525090507f000000000000000000000000000000000000000000000000000000000000000073ffffffffffffffffffffffffffffffffffffffff1663414bf389826040518263ffffffff1660e01b81526004016104879190610920565b6020604051808303816000875af11580156104a6573d6000803e3d6000fd5b505050506040513d601f19601f820116820180604052508101906104ca9190610951565b5050426001819055505050565b600073ffffffffffffffffffffffffffffffffffffffff82169050919050565b6000610502826104d7565b9050919050565b610512816104f7565b82525050565b600060208201905061052d6000830184610509565b92915050565b6000819050919050565b600061055861055361054e846104d7565b610533565b6104d7565b9050919050565b600061056a8261053d565b9050919050565b600061057c8261055f565b9050919050565b61058c81610571565b82525050565b60006020820190506105a76000830184610583565b92915050565b6000819050919050565b6105c0816105ad565b82525050565b60006020820190506105db60008301846105b7565b92915050565b60006105ec8261055f565b9050919050565b6105fc816105e1565b82525050565b600060208201905061061760008301846105f3565b92915050565b600080fd5b61062b816105ad565b811461063657600080fd5b50565b60008135905061064881610622565b92915050565b600080604083850312156106655761066461061d565b5b600061067385828601610639565b925050602061068485828601610639565b9150509250929050565b7f4e487b7100000000000000000000000000000000000000000000000000000000600052601160045260246000fd5b60006106c8826105ad565b91506106d3836105ad565b92508282019050808211156106eb576106ea61068e565b5b92915050565b600082825260208201905092915050565b7f496e74657276616c206e6f742070617373656400000000000000000000000000600082015250565b60006107386013836106f1565b915061074382610702565b602082019050919050565b600060208201905081810360008301526107678161072b565b9050919050565b60006060820190506107836000830186610509565b6107906020830185610509565b61079d60408301846105b7565b949350505050565b60008115159050919050565b6107ba816107a5565b81146107c557600080fd5b50565b6000815190506107d7816107b1565b92915050565b6000602082840312156107f3576107f261061d565b5b6000610801848285016107c8565b91505092915050565b600060408201905061081f6000830185610509565b61082c60208301846105b7565b9392505050565b61083c816104f7565b82525050565b600062ffffff82169050919050565b61085a81610842565b82525050565b610869816105ad565b82525050565b610878816104d7565b82525050565b610100820160008201516108956000850182610833565b5060208201516108a86020850182610833565b5060408201516108bb6040850182610851565b5060608201516108ce6060850182610833565b5060808201516108e16080850182610860565b5060a08201516108f460a0850182610860565b5060c082015161090760c0850182610860565b5060e082015161091a60e085018261086f565b50505050565b600061010082019050610936600083018461087e565b92915050565b60008151905061094b81610622565b92915050565b6000602082840312156109675761096661061d565b5b60006109758482850161093c565b9150509291505056fea2646970667358221220fea098ec8f3ef4c1f6e5faaa801ee46e2e8afbfbc726c322d399c65920db287c64736f6c63430008180033",
  "linkReferences": {},
  "deployedLinkReferences": {}
}